{
  "_format": "hh-sol-artifact-1",
  "contractName": "Sudoku",
  "sourceName": "contracts/Sudoku.sol",
  "abi": [
    {
      "inputs": [],
      "stateMutability": "nonpayable",
      "type": "constructor"
    },
    {
      "inputs": [
        {
          "internalType": "string",
          "name": "_programId",
          "type": "string"
        },
        {
          "internalType": "string",
          "name": "_storeId",
          "type": "string"
        },
        {
          "internalType": "uint256[]",
          "name": "_numbers",
          "type": "uint256[]"
        }
      ],
      "name": "createGame",
      "outputs": [],
      "stateMutability": "nonpayable",
      "type": "function"
    },
    {
      "inputs": [],
      "name": "getGames",
      "outputs": [
        {
          "components": [
            {
              "internalType": "string",
              "name": "programId",
              "type": "string"
            },
            {
              "internalType": "string",
              "name": "storeId",
              "type": "string"
            },
            {
              "internalType": "uint256[]",
              "name": "numbers",
              "type": "uint256[]"
            }
          ],
          "internalType": "struct Sudoku.Game[]",
          "name": "",
          "type": "tuple[]"
        }
      ],
      "stateMutability": "view",
      "type": "function"
    },
    {
      "inputs": [
        {
          "internalType": "uint256",
          "name": "_id",
          "type": "uint256"
        }
      ],
      "name": "getNumbers",
      "outputs": [
        {
          "internalType": "uint256[]",
          "name": "",
          "type": "uint256[]"
        }
      ],
      "stateMutability": "view",
      "type": "function"
    }
  ],
  "bytecode": "0x608060405234801561001057600080fd5b50610d87806100206000396000f3fe608060405234801561001057600080fd5b50600436106100415760003560e01c80634a7b26ae14610046578063c04c594714610076578063d176bc1214610094575b600080fd5b610060600480360381019061005b9190610452565b6100b0565b60405161006d919061053d565b60405180910390f35b61007e61012d565b60405161008b919061077e565b60405180910390f35b6100ae60048036038101906100a9919061099d565b610308565b005b6060600082815481106100c6576100c5610a44565b5b906000526020600020906003020160020180548060200260200160405190810160405280929190818152602001828054801561012157602002820191906000526020600020905b81548152602001906001019080831161010d575b50505050509050919050565b60606000805480602002602001604051908101604052809291908181526020016000905b828210156102ff578382906000526020600020906003020160405180606001604052908160008201805461018490610aa2565b80601f01602080910402602001604051908101604052809291908181526020018280546101b090610aa2565b80156101fd5780601f106101d2576101008083540402835291602001916101fd565b820191906000526020600020905b8154815290600101906020018083116101e057829003601f168201915b5050505050815260200160018201805461021690610aa2565b80601f016020809104026020016040519081016040528092919081815260200182805461024290610aa2565b801561028f5780601f106102645761010080835404028352916020019161028f565b820191906000526020600020905b81548152906001019060200180831161027257829003601f168201915b50505050508152602001600282018054806020026020016040519081016040528092919081815260200182805480156102e757602002820191906000526020600020905b8154815260200190600101908083116102d3575b50505050508152505081526020019060010190610151565b50505050905090565b6000604051806060016040528085815260200184815260200183815250908060018154018082558091505060019003906000526020600020906003020160009091909190915060008201518160000190816103639190610c7f565b5060208201518160010190816103799190610c7f565b50604082015181600201908051906020019061039692919061039e565b505050505050565b8280548282559060005260206000209081019282156103da579160200282015b828111156103d95782518255916020019190600101906103be565b5b5090506103e791906103eb565b5090565b5b808211156104045760008160009055506001016103ec565b5090565b6000604051905090565b600080fd5b600080fd5b6000819050919050565b61042f8161041c565b811461043a57600080fd5b50565b60008135905061044c81610426565b92915050565b60006020828403121561046857610467610412565b5b60006104768482850161043d565b91505092915050565b600081519050919050565b600082825260208201905092915050565b6000819050602082019050919050565b6104b48161041c565b82525050565b60006104c683836104ab565b60208301905092915050565b6000602082019050919050565b60006104ea8261047f565b6104f4818561048a565b93506104ff8361049b565b8060005b8381101561053057815161051788826104ba565b9750610522836104d2565b925050600181019050610503565b5085935050505092915050565b6000602082019050818103600083015261055781846104df565b905092915050565b600081519050919050565b600082825260208201905092915050565b6000819050602082019050919050565b600081519050919050565b600082825260208201905092915050565b60005b838110156105c55780820151818401526020810190506105aa565b60008484015250505050565b6000601f19601f8301169050919050565b60006105ed8261058b565b6105f78185610596565b93506106078185602086016105a7565b610610816105d1565b840191505092915050565b600082825260208201905092915050565b60006106378261047f565b610641818561061b565b935061064c8361049b565b8060005b8381101561067d57815161066488826104ba565b975061066f836104d2565b925050600181019050610650565b5085935050505092915050565b600060608301600083015184820360008601526106a782826105e2565b915050602083015184820360208601526106c182826105e2565b915050604083015184820360408601526106db828261062c565b9150508091505092915050565b60006106f4838361068a565b905092915050565b6000602082019050919050565b60006107148261055f565b61071e818561056a565b9350836020820285016107308561057b565b8060005b8581101561076c578484038952815161074d85826106e8565b9450610758836106fc565b925060208a01995050600181019050610734565b50829750879550505050505092915050565b600060208201905081810360008301526107988184610709565b905092915050565b600080fd5b600080fd5b7f4e487b7100000000000000000000000000000000000000000000000000000000600052604160045260246000fd5b6107e2826105d1565b810181811067ffffffffffffffff82111715610801576108006107aa565b5b80604052505050565b6000610814610408565b905061082082826107d9565b919050565b600067ffffffffffffffff8211156108405761083f6107aa565b5b610849826105d1565b9050602081019050919050565b82818337600083830152505050565b600061087861087384610825565b61080a565b905082815260208101848484011115610894576108936107a5565b5b61089f848285610856565b509392505050565b600082601f8301126108bc576108bb6107a0565b5b81356108cc848260208601610865565b91505092915050565b600067ffffffffffffffff8211156108f0576108ef6107aa565b5b602082029050602081019050919050565b600080fd5b6000610919610914846108d5565b61080a565b9050808382526020820190506020840283018581111561093c5761093b610901565b5b835b818110156109655780610951888261043d565b84526020840193505060208101905061093e565b5050509392505050565b600082601f830112610984576109836107a0565b5b8135610994848260208601610906565b91505092915050565b6000806000606084860312156109b6576109b5610412565b5b600084013567ffffffffffffffff8111156109d4576109d3610417565b5b6109e0868287016108a7565b935050602084013567ffffffffffffffff811115610a0157610a00610417565b5b610a0d868287016108a7565b925050604084013567ffffffffffffffff811115610a2e57610a2d610417565b5b610a3a8682870161096f565b9150509250925092565b7f4e487b7100000000000000000000000000000000000000000000000000000000600052603260045260246000fd5b7f4e487b7100000000000000000000000000000000000000000000000000000000600052602260045260246000fd5b60006002820490506001821680610aba57607f821691505b602082108103610acd57610acc610a73565b5b50919050565b60008190508160005260206000209050919050565b60006020601f8301049050919050565b600082821b905092915050565b600060088302610b357fffffffffffffffffffffffffffffffffffffffffffffffffffffffffffffffff82610af8565b610b3f8683610af8565b95508019841693508086168417925050509392505050565b6000819050919050565b6000610b7c610b77610b728461041c565b610b57565b61041c565b9050919050565b6000819050919050565b610b9683610b61565b610baa610ba282610b83565b848454610b05565b825550505050565b600090565b610bbf610bb2565b610bca818484610b8d565b505050565b5b81811015610bee57610be3600082610bb7565b600181019050610bd0565b5050565b601f821115610c3357610c0481610ad3565b610c0d84610ae8565b81016020851015610c1c578190505b610c30610c2885610ae8565b830182610bcf565b50505b505050565b600082821c905092915050565b6000610c5660001984600802610c38565b1980831691505092915050565b6000610c6f8383610c45565b9150826002028217905092915050565b610c888261058b565b67ffffffffffffffff811115610ca157610ca06107aa565b5b610cab8254610aa2565b610cb6828285610bf2565b600060209050601f831160018114610ce95760008415610cd7578287015190505b610ce18582610c63565b865550610d49565b601f198416610cf786610ad3565b60005b82811015610d1f57848901518255600182019150602085019450602081019050610cfa565b86831015610d3c5784890151610d38601f891682610c45565b8355505b6001600288020188555050505b50505050505056fea2646970667358221220eac86e998413474f3e12371b027cf889f9ed5611cc86930d0666519390edbed064736f6c63430008180033",
  "linkReferences": {},
  "deployedLinkReferences": {}
}